:020000040800F2
:10000000801F0020550200085D0200085F02000802
:100010006102000863020008650200080000000099
:10002000000000000000000000000000BD0100080A
:10003000690200080000000001020008A505000890
:100040006F0200086F0200086F0200086F020008CC
:100050006F0200086F0200086F0200086F020008BC
:100060006F0200086F0200086F0200086F020008AC
:100070006F0200086F0200086F0200086F0200089C
:100080006F0200086F0200086F0200080000000005
:100090000000000000000000000000006F020008E7
:1000A0006F0200086F0200086F0200086F0200086C
:1000B0006F0200086F0200086F0200086F0200085C
:1000C0006F0200086F0200086F0200086F0200084C
:1000D0006F020008E10600086F0200086F020008C6
:1000E0006F0200086F0200086F02000800000000A5
:1000F0000000000000000000000000000000000000
:1001000000000000000000000000000000000000EF
:1001100000000000000000006F0200086F020008ED
:1001200000F002F800F03AF80AA090E8000C8244CF
:100130008344AAF10107DA4501D100F02FF8AFF2AC
:10014000090EBAE80F0013F0010F18BFFB1A43F0B5
:1001500001031847540E0000740E0000103A24BF2B
:1001600078C878C1FAD8520724BF30C830C144BF1C
:1001700004680C607047000000230024002500265E
:10018000103A28BF78C1FBD8520728BF30C148BFFA
:100190000B6070471FB51FBD10B510BD00F07DF896
:1001A0001146FFF7F7FF00F0B7FA00F09BF803B431
:1001B000FFF7F2FF03BC00F0A3F80000224B196820
:1001C0000868B0E8F00F80F30988BFF36F8F4FF035
:1001D000000080F311884EF00D0E70470000000003
:1001E00006480068006880F3088862B661B6BFF30D
:1001F0004F8FBFF36F8F00DF00BF00BF08ED00E03F
:10020000EFF30980BFF36F8F0F4B1A6820E9F00FEF
:10021000106008B54FF0BF0080F31188BFF34F8F17
:10022000BFF36F8F00F03AFD4FF0000080F31188AC
:10023000BDE8084019680868B0E8F00F80F3098845
:10024000BFF36F8F704700BF18000020EFF30580E9
:10025000704700000948804709480047FEE7FEE76D
:10026000FEE7FEE7FEE7FEE7FEE7FEE7FEE7FEE766
:1002700004480549054A064B70470000D9050008A7
:100280002101000880190020801F0020801B002011
:10029000801B0020704770477047754600F02CF8AF
:1002A000AE4605006946534620F00700854618B063
:1002B00020B5FFF7DDFFBDE820404FF000064FF00E
:1002C00000074FF000084FF0000B21F00701AC468B
:1002D000ACE8C009ACE8C009ACE8C009ACE8C009AA
:1002E0008D46704710B50446AFF300802046BDE848
:1002F0001040FFF75CBF0000004870471C19002049
:1003000001491820ABBEFEE726000200704700003E
:100310001548806940F010001349886108468069DB
:1003200040F0040088611148406820F00C000F493B
:1003300048600846406840F0010048600846406850
:1003400020F0C00048600846406840F01000486057
:100350000846006820F00C0008600846006820F09D
:1003600003000860704700000010024000100140C8
:100370001948406940F00100174948611748184979
:10038000C86418480865202088640846406C20F03E
:10039000200048640846406C20F04000486408464D
:1003A000406C20F4407048640846406C20F4406083
:1003B00048640846406C40F0100048640846406CB1
:1003C00040F08000486405481030008840F080000C
:1003D0000249103108807047001002400438014083
:1003E00000000240000000200E48806940F0040038
:1003F0000C4988610C48006820F004000A49086034
:100400000846006840F0080008600846006840F0B0
:10041000030008600348406840F08060014948607C
:100420007047000000100240040801402B4800689B
:1004300040F480302949086000BF2848006800F473
:1004400000300028F9D0132025490860234840686F
:10045000224948600846406848600846406848604D
:100460000846406820F4701048600846406820F450
:10047000803048600846406820F4003048600846F4
:10048000406840F4803048600846406840F40030DE
:1004900048600846406840F480104860084600689C
:1004A00040F08070086000BF0C48006800F00070E9
:1004B0000028F9D00948406820F003000749486047
:1004C0000846406840F00200486000BF03484068AA
:1004D00000F00C000828F9D170470000001002401D
:1004E0000020024010B500F001F810BD0CB500204E
:1004F000019000902A48006840F480302849086044
:1005000000BF2748006800F4003000900198401CAC
:100510000190009818B90198B0F5A06FF1D120486A
:10052000006800F4003010B10120009001E00020CC
:1005300000900098012831D1194840681849486056
:100540000846406848600846406848600846406879
:1005500020F47C1048600846406840F498104860D9
:100560000846006840F08070086000BF0C480068D2
:1005700000F000700028F9D00948406820F003001E
:10058000074948600846406840F00200486000BFE4
:100590000348406800F00C000828F9D10CBD0000A9
:1005A0000010024010B500BFBF2080F31188BFF3D8
:1005B0004F8FBFF36F8F00BF00F0F6FB18B14FF005
:1005C00080500449086000BF002080F3118800BFFC
:1005D00010BD000004ED00E010B51448006840F0C4
:1005E00001001249086008464068114908400F4957
:1005F0004860084600680F4908400C4908600846F2
:10060000006820F4802008600846406820F4FE005E
:1006100048604FF41F0088600020C862FFF762FF47
:100620004FF000600449086010BD00000010024057
:100630000000FFF8FFFFF6FE08ED00E025488069A6
:1006400040F48040234988610846806940F00400F6
:1006500088610846806940F0010088611E48006892
:1006600040F080001C4908600846006840F03000F7
:1006700008600846006840F480600860084600682A
:1006800020F44070086040F6C41014490880081D2A
:10069000008840F00800091D08800846008840F0E6
:1006A000040008800846008840F40050088008468E
:1006B000008840F020000880252000F01F02012162
:1006C00091404209920002F1E022C2F8001100BFFD
:1006D0007047000000100240040801400838014043
:1006E0000148008870470000003801400948406C0C
:1006F00020F00100074948640B20886408464068E0
:1007000040F4005048600846406C40F001004864E6
:1007100070470000000002401CB5FFF787FEFFF79E
:1007200063FEFFF7F5FDFFF789FFFFF721FE0020CD
:10073000012103462022CDE9001004A1044800F065
:1007400003FB00F071FA00BFFEE70000444D4100DA
:10075000D50B00082DE9F04105460E4616480768FE
:1007600016480068001D00F0BFF9681C38B936B1A2
:1007700012480168091D124800F0F4F91AE07C19CA
:100780000E4800684460BC4207D20C480168091D4D
:100790000C48006800F0CCF90CE008480168091D1D
:1007A0000948006800F0C4F908480068844201D292
:1007B00006480460BDE8F0812C00002018000020ED
:1007C00008190020200000201C0000204800002004
:1007D00010B5044600F0D2F922480068401C2149B7
:1007E00008602148006840B91F4804600846006856
:1007F00001280DD100F0D4F80AE01C48006838B98F
:1008000019480068C06AE16A884201D81648046045
:1008100017480068401C164908601649E06A0968D4
:10082000884202D91349E06A0860E16A01EB81015C
:10083000114A02EB8100211D00F094F900F0B0F99B
:100840000A48006868B108480068C06AE16A8842DE
:1008500007D24FF0805009490860BFF34F8FBFF3B4
:100860006F8F10BD280000201800002034000020E9
:1008700044000020300000205418002004ED00E067
:1008800070B523E000F002FA1348006808B90120AF
:1008900000E00020054600F013FBBDB900F06EF942
:1008A0000D48C068C468201D00F01EF90B480068A0
:1008B000401E0A4908600A480068401E084908604E
:1008C00000F06EF9204600F00DF800BF0448006803
:1008D0000028D7D170BD0000F418002028000020A7
:1008E0002400002010B50446206B00F069F9204672
:1008F00000F066F910BD000000BFFFF7C1FF064819
:1009000000680128F9D94FF0805004490860BFF30E
:100910004F8FBFF36F8FF0E75418002004ED00E015
:100920002DE9FF5F80460E469146DDE90E7A109C68
:10093000A9F10100216B01EB800B2BF0070B0025C7
:1009400007E0715D04F134004155705D00B902E0CB
:100950006D1C102DF5D300BF002143200155052F3C
:1009600000D30427E762201D00F0DFF804F118002F
:1009700000F0DBF82461C7F10500A061646200208B
:10098000606484F8480041465846039A00F09AF89B
:100990002060BAF1000F01D0CAF80040BDE8FF9F07
:1009A00010B5002407E004EB84010F4A02EB81003C
:1009B00000F0AEF8641C052CF5D30C4800F0A8F844
:1009C0000B4800F0A5F80B4800F0A2F80A4800F028
:1009D0009FF80A4800F09CF8044809490860044858
:1009E0000849086010BD000054180020B818002005
:1009F000CC180020E0180020F4180020081900206E
:100A00001C000020200000200A490968096809B973
:100A1000012100E0002121B14FF0FF31064A1160B1
:100A200006E004490968C968C868034A416811605A
:100A3000704700001C0000204800002000BFBF20BD
:100A400080F31188BFF34F8FBFF36F8F00BF00BFDC
:100A5000FEE7000070B50446002504F0070020B151
:100A600004F00700C0F10800044400F00FF9124838
:100A7000006820B9114820F007000F4908601048AD
:100A80000068204441F2F871884210D20C48006896
:100A900020440B490968884209D907480068084979
:100AA000096845180648006820440549086000F0B8
:100AB00007FA284670BD0000100000205C000020EE
:100AC0000C000020001F4FF080730360001F21F016
:100AD00001030360001F034B0360143802602038D9
:100AE000704700003D0A000801460A69D1E901305B
:100AF0009860D1E9010358605068884201D1886844
:100B00005060002008611068401E10601068704737
:100B100000F1080141604FF0FF31816000F10801F0
:100B2000C1600161002101607047002101617047CF
:100B300010B502460B685C1C0CB9106907E002F1A5
:100B4000080000E04068446824689C42FAD9446880
:100B50004C604C68A160886041600A611468641C44
:100B6000146010BD42684A6093688B609368596056
:100B70009160086103685B1C0360704700BFBF2081
:100B800080F31188BFF34F8FBFF36F8F00BF03480F
:100B90000068401C014908607047000014000020F4
:100BA00006480068401E054908600846006820B9EC
:100BB000002080F3118800BF00BF704714000020A0
:100BC000704745F6BF504FF0E021486107200861AB
:100BD000704700000BE0FFF789FD0548C06880F40E
:100BE00080700349C8604FF47A7000F003F8F2E7B0
:100BF0000010014070B50446002544B100F046F8ED
:100C000000212046FFF7A6FD00F05AF905463DB940
:100C10004FF0805003490860BFF34F8FBFF36F8FD1
:100C200070BD000004ED00E01CB5114800210B462A
:100C30002022CDE900100FA1104800F085F80446ED
:100C4000012C14D100BFBF2080F31188BFF34F8F58
:100C5000BFF36F8F00BF4FF0FF30094908600120DC
:100C60000849086000200849086000F053F81CBDDE
:100C70004C00002049444C4500000000F9080008E1
:100C800048000020340000202C00002002480068AA
:100C9000401C014908607047500000201848006857
:100CA00018B101201749086028E0002015490860A4
:100CB0001548016800E0491E01EB8100134A52F813
:100CC000200008B9012000E000200028F3D101EB4A
:100CD00081020E4B03EB820042685268426000F1D1
:100CE00008024368934202D14268526842604268F7
:100CF000D268074B1A600448016000BF70470000CB
:100D0000500000203C00002030000020541800203B
:100D10001800002010B50A48006840F47F00084918
:100D200008600846006840F07F400860FFF749FF10
:100D3000002004490860FFF753FA002010BD0000AE
:100D400020ED00E0140000202DE9FF4F85B0804623
:100D500089461746DDE912ABB800FFF77BFE064671
:100D600056B14C20FFF776FE04460CB1266304E032
:100D70003046FFF725FF00E000247CB10020CDE9DC
:100D800000ABCDE902403A4649464046089BFFF792
:100D9000C7FD2046FFF71CFD012501E04FF0FF35A0
:100DA000284609B0BDE8F08F2DE9F0410027394809
:100DB0000068002862D138480068451C3648056044
:100DC0008DB93648D0F8008035480068334908604E
:100DD0003348C0F8008033480068401C314908603F
:100DE000FFF712FE00BF3048006885423AD300BFCB
:100DF0002A480068006808B9012000E0002020B1FE
:100E00004FF0FF30284908602BE024480068C06894
:100E1000C4686668B54202D22348066021E0201DFE
:100E2000FFF762FEA06A18B104F11800FFF75CFE3C
:100E30001E49E06A0968884202D91C49E06A0860D4
:100E4000E16A01EB81011A4A02EB8100211DFFF7E3
:100E500089FE1849E06A0968C96A8842C8D301272F
:100E6000C6E700BF13480068C06A00EB8000104965
:100E700051F82000012800D9012704E00E4800683D
:100E8000401C0D4908600D48006800B10127384634
:100E9000BDE8F081500000202C0000201C00002044
:100EA00020000020400000204800002030000020EA
:100EB0005418002018000020380000203C000020BA
:100EC00070B500240026FFF759FE2E480068401E2A
:100ED0002C4908600846006800284ED12A4800685E
:100EE00000284AD023E02948C068C46804F11800EB
:100EF000FFF7FAFD201DFFF7F7FD2549E06A0968B5
:100F0000884202D92249E06A0860E16A01EB810166
:100F1000204A02EB8100211DFFF724FE1E49E06AF2
:100F20000968C96A884202D301201C490860174831
:100F3000006808B9012000E000200028D3D00CB1DF
:100F4000FFF762FD1648056865B100BFFFF72CFF8B
:100F500010B10120114908606D1E002DF6D100204E
:100F60000F4908600D48006838B1012630070D4967
:100F70000860BFF34F8FBFF36F8FFFF711FE30464E
:100F800070BD00005000002028000020E018002064
:100F90003000002054180020180000203C000020E1
:100FA0003800002004ED00E0C80F00080000002019
:100FB000540000005C0100081C10000854000020D0
:100FC0002C1F0000780100084920616D20444D412C
:100FD000210D0A000000000000000000AAAAAAAA31
:100FE0000000000000000000000000000000000001
:100FF00000000000000000000000000000000000F1
:1010000000000000000000000000000000000000E0
:0C101000000000000000000000000000D4
:040000050800025598
:00000001FF
