:020000040800F2
:10000000781F0020550200085D0200085F0200080A
:100010006102000863020008650200080000000099
:10002000000000000000000000000000BD0100080A
:100030006902000800000000010200081908000819
:100040006F0200086F0200086F0200086F020008CC
:100050006F0200086F0200086F0200086F020008BC
:100060006F0200086F0200086F0200086F020008AC
:100070006F0200086F0200086F0200086F0200089C
:100080006F0200086F0200086F0200080000000005
:100090000000000000000000000000006F020008E7
:1000A0006F0200086F0200086F0200086F0200086C
:1000B0006F0200086F0200086F0200086F0200085C
:1000C0006F0200086F0200086F0200086F0200084C
:1000D0006F020008B10800086F0200086F020008F4
:1000E0006F0200086F0200086F02000800000000A5
:1000F0000000000000000000000000000000000000
:1001000000000000000000000000000000000000EF
:1001100000000000000000006F0200086F020008ED
:1001200000F002F800F03AF80AA090E8000C8244CF
:100130008344AAF10107DA4501D100F02FF8AFF2AC
:10014000090EBAE80F0013F0010F18BFFB1A43F0B5
:100150000103184798160000B8160000103A24BF93
:1001600078C878C1FAD8520724BF30C830C144BF1C
:1001700004680C607047000000230024002500265E
:10018000103A28BF78C1FBD8520728BF30C148BFFA
:100190000B6070471FB51FBD10B510BD00F0F4F81F
:1001A0001146FFF7F7FF00F0BFFB00F012F903B4B0
:1001B000FFF7F2FF03BC00F019F90000224B1968A9
:1001C0000868B0E8F00F80F30988BFF36F8F4FF035
:1001D000000080F311884EF00D0E70470000000003
:1001E00006480068006880F3088862B661B6BFF30D
:1001F0004F8FBFF36F8F00DF00BF00BF08ED00E03F
:10020000EFF30980BFF36F8F0F4B1A6820E9F00FEF
:10021000106008B54FF0BF0080F31188BFF34F8F17
:10022000BFF36F8F00F068FF4FF0000080F311887C
:10023000BDE8084019680868B0E8F00F80F3098845
:10024000BFF36F8F704700BF10000020EFF30580F1
:10025000704700000948804709480047FEE7FEE76D
:10026000FEE7FEE7FEE7FEE7FEE7FEE7FEE7FEE766
:1002700004480549054A064B704700004D08000830
:100280002101000878190020781F0020781B002029
:10029000781B0020032A40F2308010F0030C00F09D
:1002A000158011F8013BBCF1020F624498BF11F8B0
:1002B00001CB00F8013B38BF11F8013BA2F1040269
:1002C00098BF00F801CB38BF00F8013B11F00303E1
:1002D00000F02880083AC0F0088051F8043B083A42
:1002E00051F804CBA0E80810F5E7121D5CBF51F8E7
:1002F000043B40F8043BAFF30080D20724BF11F861
:10030000013B11F801CB48BF11F8012B24BF00F8C5
:10031000013B00F801CB48BF00F8012B7047704744
:100320007047704710B5203AC0F00B80B1E8185004
:10033000203AA0E81850B1E81850A0E81850BFF4CF
:10034000F5AF5FEA027C24BFB1E81850A0E818506E
:1003500044BF18C918C0BDE810405FEA827C24BFC2
:1003600051F8043B40F8043B08BF7047D20728BF50
:1003700031F8023B48BF11F8012B28BF20F8023B9F
:1003800048BF00F8012B7047754600F02BF8AE46C9
:1003900005006946534620F00700854618B020B591
:1003A000FFF766FFBDE820404FF000064FF0000762
:1003B0004FF000084FF0000B21F00701AC46ACE80D
:1003C000C009ACE8C009ACE8C009ACE8C0098D467A
:1003D000704710B50446AFF300802046BDE81040DA
:1003E000FFF7E5BE004870471419002001491820A6
:1003F000ABBEFEE726000200704700000E48806991
:1004000040F004000C4988610C48006820F00400AA
:100410000A4908600846006840F00800086008467D
:10042000006840F0030008600348406840F08060C6
:100430000149486070470000001002400408014074
:100440001548806940F010001349886108468069AA
:1004500040F0040088611148406820F00C000F490A
:1004600048600846406840F001004860084640681F
:1004700020F0C00048600846406840F01000486026
:100480000846006820F00C0008600846006820F06C
:100490000300086070470000001002400010014097
:1004A0002348C06940F001002149C86108468069BD
:1004B00040F0040088610846806940F001008861CE
:1004C0001C48006820F0C0001A490860084600680F
:1004D00040F0800008600846006820F030000860A6
:1004E0000846006840F0300008601720C9040885FD
:1004F0004FF47A708885002008870846008B40F406
:10050000C04008830846008C40F01000088408466C
:10051000008C20F0200008840846008820F010009D
:1005200008800846008840F00100088070470000FD
:1005300000100240000801402B48006840F4803061
:100540002949086000BF2848006800F400300028EE
:10055000F9D01320254908602348406822494860A3
:100560000846406848600846406848600846406859
:1005700020F4701048600846406820F480304860DD
:100580000846406820F4003048600846406840F45F
:10059000803048600846406840F4003048600846B3
:1005A000406840F4801048600846006840F0807061
:1005B000086000BF0C48006800F000700028F9D007
:1005C0000948406820F00300074948600846406831
:1005D00040F00200486000BF0348406800F00C0093
:1005E0000828F9D1704700000010024000200240A6
:1005F00010B500F003F800F04BF810BD10B521481D
:10060000806940F480401F4988610846806940F055
:10061000040088610846806940F0010088611A483A
:10062000006840F08000184908600846006840F003
:10063000300008600846006840F4806008600846A2
:10064000006820F44070086040F6C4100F4908802C
:10065000081D008840F00800091D08800846008831
:1006600040F0040008800846008840F400500880EC
:100670000846008840F020000880252000F052F84D
:1006800010BD00000010024004080140083801407D
:1006900010B52148C06940F400301F49C8610846C0
:1006A000806940F0040088610846806940F00100DC
:1006B00088611A48006840F40060184908600846DC
:1006C000006840F4407008600846006840F48040CC
:1006D00008600846006820F44050086040F6C410E6
:1006E0000F490880081D008840F00800091D088097
:1006F0000846008840F0040008800846008840F45E
:10070000005008800846008840F02000088026201D
:1007100000F008F810BD0000001002400008014081
:100720000844004000F01F0201219140420992005C
:1007300002F1E022C2F800117047000000BF054935
:10074000098801F040010029F9D00249091D0880FB
:10075000704700000044004010B500F001F810BDE3
:100760000CB50020019000902A48006840F48030C9
:100770002849086000BF2748006800F40030009056
:100780000198401C0190009818B90198B0F5A06F2D
:10079000F1D12048006800F4003010B10120009031
:1007A00001E0002000900098012831D119484068EC
:1007B00018494860084640684860084640684860F4
:1007C0000846406820F47C1048600846406840F4C1
:1007D000981048600846006840F08070086000BFCC
:1007E0000C48006800F000700028F9D00948406803
:1007F00020F00300074948600846406840F00200C6
:10080000486000BF0348406800F00C000828F9D198
:100810000CBD00000010024010B500BFBF2080F3E7
:100820001188BFF34F8FBFF36F8F00BF00F09EFEA4
:1008300018B14FF080500449086000BF002080F3D9
:10084000118800BF10BD000004ED00E010B5144891
:10085000006840F0010012490860084640681149EC
:1008600008400F494860084600680F4908400C4995
:1008700008600846006820F4802008600846406848
:1008800020F4FE0048604FF41F0088600020C8621A
:10089000FFF762FF4FF000600449086010BD0000E0
:1008A000001002400000FFF8FFFFF6FE08ED00E038
:1008B0001B48008800F0200080B31948008820F011
:1008C000200017490880081D0088012805D1154817
:1008D000006940F48070134908611148001D0088C8
:1008E000022805D10F48006940F080700D49086169
:1008F0000B48001D0088032805D10A48006940F410
:100900000070084908610648001D0088042805D1C8
:100910000448006940F00070024908617047000017
:1009200000380140001001401CB5FFF705FEFFF73D
:1009300065FDFFF785FDFFF75BFEFFF7B1FD0020CA
:10094000012103462022CDE900100CA10D4800F042
:10095000DDFD0020012103462022CDE900100AA17F
:100960000A4800F0D3FD00220121052000F01AFC06
:100970000749086000F086FB00BFFEE74C454431A4
:1009800000000000990F000850574D001D1000088E
:10099000000000202DE9F04105460E461648076884
:1009A00016480068001D00F077FA681C38B936B1A7
:1009B00012480168091D124800F0B5FA1AE07C19C6
:1009C0000E4800684460BC4207D20C480168091D0B
:1009D0000C48006800F08DFA0CE008480168091D19
:1009E0000948006800F085FA08480068844201D28E
:1009F00006480460BDE8F0812400002010000020BB
:100A000000190020180000201400002040000020E1
:100A100010B5044600F094FA22480068401C2149B1
:100A200008602148006840B91F4804600846006813
:100A300001280DD100F032F90AE01C48006838B9ED
:100A400019480068C06AE16A884201D81648046003
:100A500017480068401C164908601649E06A096892
:100A6000884202D91349E06A0860E16A01EB81011A
:100A7000114A02EB8100211D00F055FA00F072FAD4
:100A80000A48006868B108480068C06AE16A88429C
:100A900007D24FF0805009490860BFF34F8FBFF372
:100AA0006F8F10BD20000020100000202C000020BF
:100AB0003C000020280000204C18002004ED00E03D
:100AC00070B523E000F010FB1348006808B901205E
:100AD00000E00020054600F015FEBDB900F030FA38
:100AE0000D48C068C468201D00F0D6F90B480068A6
:100AF000401E0A4908600A480068401E084908600C
:100B000000F030FA204600F057F800BF04480068B3
:100B10000028D7D170BD0000EC1800202000002074
:100B20001C00002070B504460D46206C70B1216C8D
:100B3000E0680844E0606168E068884201D32068AA
:100B4000E0602846226CE168FFF7A4FB70BD2DE948
:100B5000F04104460F4615464FF00008A66B206C86
:100B600028B37DB93946226CA068FFF793FB216C4E
:100B7000A0680844A060D4E90110884217D3206817
:100B8000A06014E03946226CE068FFF783FB216C1B
:100B9000E068401AE0602168E068884203D2216C76
:100BA0006068401AE060022D01D106B1761E701C0B
:100BB000A0634046BDE8F08110B50446206B00F00C
:100BC000E1F9204600F0DEF910BD000000BFFFF79C
:100BD00077FF064800680128F9D94FF08050044992
:100BE0000860BFF34F8FBFF36F8FF0E74C18002002
:100BF00004ED00E02DE9F04106460D461746984603
:100C0000069C0DB9246000E02760E663256401219D
:100C1000204600F081FBBDE8F0812DE9FF5F8046B2
:100C20000E469146DDE90E7A109CA9F10100216B78
:100C300001EB800B2BF0070B002507E0715D04F141
:100C400034004155705D00B902E06D1C102DF5D3E4
:100C500000BF002143200155052F00D30427E76280
:100C6000201D00F043F904F1180000F03FF9246161
:100C7000C7F10500A06164620020606484F8480048
:100C800041465846039A00F0F5F82060BAF1000F8B
:100C900001D0CAF80040BDE8FF9F000010B5002455
:100CA00007E004EB84010F4A02EB810000F011F928
:100CB000641C052CF5D30C4800F00BF90B4800F030
:100CC00008F90B4800F005F90A4800F002F90A4853
:100CD00000F0FFF804480949086004480849086022
:100CE00010BD00004C180020B0180020C4180020CF
:100CF000D8180020EC180020001900201400002053
:100D00001800002070B5054600F01AF9A86B08B964
:100D1000012400E0002400F025F9204670BD70B5E4
:100D2000054600F00DF9A86BE96B884201D101245A
:100D300000E0002400F016F9204670BD0A49096859
:100D4000096809B9012100E0002121B14FF0FF310C
:100D5000064A116006E004490968C968C868034A80
:100D6000416811607047000014000020400000201E
:100D700000BFBF2080F31188BFF34F8FBFF36F8F89
:100D800000BF00BFFEE770B5044600F0D9F894F943
:100D9000455010E0606A08B9012000E0002038B931
:100DA00004F1240000F06EFC18B100F031F900E00D
:100DB00003E0681E45B2002DECDC00BFFF2084F884
:100DC000450000F0CFF800F0BBF894F9445010E073
:100DD000206908B9012000E0002048B904F11000A2
:100DE00000F050FC08B100F013F9681E45B200E0B5
:100DF00001E0002DECDC00BFFF2084F8440000F08F
:100E0000B1F870BD70B50446002504F0070020B1AC
:100E100004F00700C0F10800044400F065F912482E
:100E2000006820B9114820F007000F4908601048F9
:100E30000068204441F2F871884210D20C480068E2
:100E400020440B490968884209D9074800680849C5
:100E5000096845180648006820440549086000F004
:100E600051FC284670BD00000800002054000020FE
:100E700004000020001F4FF080730360001F21F06A
:100E800001030360001F034B036014380260203825
:100E900070470000710D000801460A69D1E9013070
:100EA0009860D1E9010358605068884201D1886890
:100EB0005060002008611068401E10601068704784
:100EC00070B5044600F03CF8A56B00F04BF82846DE
:100ED00070BD00F1080141604FF0FF31816000F109
:100EE0000801C160016100210160704700210161BA
:100EF000704710B502460B685C1C0CB9106907E01E
:100F000002F1080000E04068446824689C42FAD975
:100F100044684C604C68A160886041600A61146854
:100F2000641C146010BD42684A6093688B609368CB
:100F300059609160086103685B1C036070470000A2
:100F400000BFBF2080F31188BFF34F8FBFF36F8FB7
:100F500000BF03480068401C01490860704700005A
:100F60000C00002006480068401E0549086008463D
:100F7000006820B9002080F3118800BF00BF7047CF
:100F80000C000020704745F6BF504FF0E02148614B
:100F9000072008617047000008B51AE00D48006896
:100FA00000F0010010B1642000F018F80A48006851
:100FB000FFF786FF50B100231A46694606480068CD
:100FC00000F00CF99DF80000FFF7B8FB642000F07A
:100FD00005F8E3E7080801400000002070B504466A
:100FE000002544B100F080F800212046FFF7D2FC34
:100FF00000F088FB05463DB94FF08050034908607A
:10100000BFF34F8FBFF36F8F70BD000004ED00E0A2
:1010100001200149086070473400002008B51E20F7
:1010200000900FE0BDF80000401C80B2009000234B
:101030001A4669460448006800F0AEF94FF47A7029
:10104000FFF7CCFFEEE700000000002070B505467A
:101050000C460548016818312846FFF74AFF012170
:101060002046FFF797FC70BD100000200349096877
:1010700001600349096841607047000038000020A2
:10108000240000201CB5114800210B462022CDE988
:1010900000100FA1104800F039FA0446012C14D1B9
:1010A00000BFBF2080F31188BFF34F8FBFF36F8F56
:1010B00000BF4FF0FF30094908600120084908606F
:1010C00000200849086000F053F81CBD44000020CF
:1010D00049444C4500000000CD0B000840000020B2
:1010E0002C0000202400002002480068401C014918
:1010F00008607047480000201848006818B10120B7
:101100001749086028E00020154908601548016863
:1011100000E0491E01EB8100134A52F8200008B993
:10112000012000E000200028F3D101EB81020E4BEA
:1011300003EB820042685268426000F10802436893
:10114000934202D14268526842604268D268074BBB
:101150001A600448016000BF70470000480000208A
:1011600034000020280000204C180020100000202F
:1011700010B50A48006840F47F0008490860084636
:10118000006840F07F400860FFF7FDFE0020044942
:101190000860FFF725F8002010BD000020ED00E0FA
:1011A0000C0000202DE9F84307460D4690460DB986
:1011B000002601E007FB05F606F14800FFF722FED6
:1011C000044644B104F1480943464A462946384694
:1011D0000094FFF70FFD2046BDE8F8832DE9FF4797
:1011E00082B0054689461E464FF0000A2C4600BFD5
:1011F000FFF7A6FED4F83880B8F1000F36D0E768C4
:1012000049462046FFF78EFCB6B9A8F10100A0635D
:10121000206908B9012000E0002008BB04F110009B
:1012200000F030FAE0B14FF080503A490860BFF367
:101230004F8FBFF36F8F13E0E760606A08B901203A
:1012400000E0002060B904F1240000F01BFA38B17E
:101250004FF080502F490860BFF34F8FBFF36F8F5F
:10126000FFF780FE012006B0BDE8F087049818B9AA
:10127000FFF778FE0020F6E7BAF1000F04D16846C8
:10128000FFF7F4FE4FF0010AFFF76CFEFFF72CFFAB
:10129000FFF756FE94F94400401C10B9002084F872
:1012A000440094F94500401C10B9002084F8450022
:1012B000FFF758FE04A9684600F0FAF8F0B9204696
:1012C000FFF720FDA0B104F124000499FFF7BEFE52
:1012D0002046FFF758FD00F015FA002888D14FF09E
:1012E00080500C490860BFF34F8FBFF36F8F7FE7CB
:1012F0002046FFF748FD00F005FA79E72046FFF7A2
:1013000042FD00F0FFF92046FFF7FCFC0028EED07C
:101310000020A8E704ED00E070B505460E462C4617
:10132000FFF70EFED4E90F12206801FB0200606097
:101330000020A0632068A060E06B401E226C216842
:1013400000FB0210E060FF2084F8440084F84500B0
:101350009EB9206908B9012000E00020A8B904F175
:10136000100000F08FF980B14FF0805009490860FB
:10137000BFF34F8FBFF36F8F07E004F11000FFF74B
:10138000A8FD04F12400FFF7A4FDFFF7EBFD012009
:1013900070BD000004ED00E02DE9FF4383B0074677
:1013A00088461D464FF000093C4600BFFFF7C8FDC8
:1013B000A06BE16B884201D3022D28D12A46414619
:1013C0002046FFF7C4FB0646606A08B9012000E02A
:1013D000002068B904F1240000F054F988B14FF0FE
:1013E000805032490860BFF34F8FBFF36F8F08E022
:1013F0003EB14FF080502D490860BFF34F8FBFF3CF
:101400006F8FFFF7AFFD012007B0BDE8F0830598AF
:1014100018B9FFF7A7FD0020F6E7B9F1000F04D1D6
:1014200001A8FFF723FE4FF00109FFF79BFDFFF72F
:101430005BFEFFF785FD94F94400401C10B90020C5
:1014400084F8440094F94500401C10B9002084F849
:101450004500FFF787FD05A901A800F029F8F0B9BC
:101460002046FFF75CFCA0B104F110000599FFF7DE
:10147000EDFD2046FFF787FC00F044F9002895D1E8
:101480004FF0805009490860BFF34F8FBFF36F8F53
:101490008CE72046FFF777FC00F034F986E720461A
:1014A000FFF771FC00F02EF90020ADE704ED00E03D
:1014B00070B504460D46FFF743FD124802682868E0
:1014C000401C08B9002619E00F49206809688842C5
:1014D00004D06068904201D801260FE06068101ABD
:1014E0002968884209D228686168511A401A286020
:1014F0002046FFF7BBFD002600E00126FFF732FD86
:10150000304670BD24000020380000202DE9FF4F38
:1015100085B0804689461746DDE912ABB800FFF773
:1015200071FC064656B14C20FFF76CFC04460CB12A
:10153000266304E03046FFF725FD00E000247CB17F
:101540000020CDE900ABCDE902403A46494640468D
:10155000089BFFF762FB2046FFF75AFA012501E0DE
:101560004FF0FF35284609B0BDE8F08F2DE9F04176
:10157000002739480068002862D138480068451CB7
:10158000364805608DB93648D0F800803548006887
:10159000334908603348C0F8008033480068401C75
:1015A00031490860FFF7CAFB00BF30480068854238
:1015B0003AD300BF2A480068006808B9012000E05B
:1015C000002020B14FF0FF30284908602BE024486C
:1015D0000068C068C4686668B54202D223480660E5
:1015E00021E0201DFFF758FCA06A18B104F1180093
:1015F000FFF752FC1E49E06A0968884202D91C497B
:10160000E06A0860E16A01EB81011A4A02EB81009D
:10161000211DFFF788FC1849E06A0968C96A8842F9
:10162000C8D30127C6E700BF13480068C06A00EBB3
:101630008000104951F82000012800D9012704E05A
:101640000E480068401C0D4908600D48006800B154
:1016500001273846BDE8F081480000202400002022
:101660001400002018000020380000204000002056
:10167000280000204C18002010000020300000201E
:101680003400002070B50646F068C46804F1180004
:10169000FFF702FC15480068A0B9201DFFF7FCFB0E
:1016A0001349E06A0968884202D91149E06A086072
:1016B000E16A01EB81010F4A02EB8100211DFFF776
:1016C00032FC04E004F118010B48FFF72CFC0B4935
:1016D000E06A0968C96A884204D9012501200849DD
:1016E000086000E00025284670BD0000480000208A
:1016F000280000204C180020D818002010000020DE
:101700003400002070B500240026FFF719FC2E4895
:101710000068401E2C4908600846006800284ED129
:101720002A48006800284AD023E02948C068C468D5
:1017300004F11800FFF7B0FB201DFFF7ADFB2549B2
:10174000E06A0968884202D92249E06A0860E16AD1
:1017500001EB8101204A02EB8100211DFFF7E3FB31
:101760001E49E06A0968C96A884202D301201C49FF
:1017700008601748006808B9012000E00020002830
:10178000D3D00CB1FFF7DAFA1648056865B100BF8F
:10179000FFF7ECFE10B10120114908606D1E002D0D
:1017A000F6D100200F4908600D48006838B10126C5
:1017B00030070D490860BFF34F8FBFF36F8FFFF7FE
:1017C000D1FB304670BD0000480000202000002002
:1017D000D8180020280000204C18002010000020FD
:1017E000340000203000002004ED00E00C18000858
:1017F000000000204C0000005C01000858180008A0
:101800004C0000202C1F00007801000800000000A0
:101810000000000000000000AAAAAAAA0000000020
:1018200000000000000000000000000000000000B8
:1018300000000000000000000000000000000000A8
:101840000000000000000000000000000000000098
:08185000000000000000000090
:040000050800025598
:00000001FF
