:020000040800F2
:10000000781F0020750200087D0200087F020008AA
:100010008102000883020008850200080000000039
:10002000000000000000000000000000DD010008EA
:10003000890200080000000021020008551A00088B
:100040008F0200088F0200088F0200088F0200084C
:100050008F0200088F0200088F0200088F0200083C
:100060008F0200088F0200088F0200088F0200082C
:100070008F0200088F0200088F0200088F0200081C
:100080008F0200088F0200088F02000800000000A5
:100090000000000000000000000000008F020008C7
:1000A0008F0200088F0200088F0200088F020008EC
:1000B0008F0200088F0200088F0200088F020008DC
:1000C0008F0200088F0200088F0200088F020008CC
:1000D0008F020008ED1A0008091B00088F020008B3
:1000E0008F0200088F0200088F0200080000000045
:1000F0000000000000000000000000000000000000
:1001000000000000000000000000000000000000EF
:1001100000000000000000008F0200088F020008AD
:1001200000F002F800F04AF80AA090E8000C8244BF
:100130008344AAF10107DA4501D100F03FF8AFF29C
:10014000090EBAE80F0013F0010F18BFFB1A43F0B5
:1001500001031847242D0000442D0000103A24BF4D
:1001600078C878C1FAD8520724BF30C830C144BF1C
:1001700004680C607047000000230024002500265E
:10018000103A28BF78C1FBD8520728BF30C148BFFA
:100190000B607047662902F00386752900F09E8087
:1001A000002070471FB500F05DFC04000020002116
:1001B00002F0CEFCE0601FBD10B510BD00F052FD96
:1001C0001146FFF7EFFF01F0C9FC00F070FD03B42A
:1001D000FFF7F2FF03BC00F0B3FD0000224B1968EB
:1001E0000868B0E8F00F80F30988BFF36F8F4FF015
:1001F000000080F311884EF00D0E704700000000E3
:1002000006480068006880F3088862B661B6BFF3EC
:100210004F8FBFF36F8F00DF00BF00BF08ED00E01E
:10022000EFF30980BFF36F8F0F4B1A6820E9F00FCF
:10023000106008B54FF0BF0080F31188BFF34F8FF7
:10024000BFF36F8F02F002F94FF0000080F31188C6
:10025000BDE8084019680868B0E8F00F80F3098825
:10026000BFF36F8F704700BF10000020EFF30580D1
:10027000704700000948804709480047FEE7FEE74D
:10028000FEE7FEE7FEE7FEE7FEE7FEE7FEE7FEE746
:1002900004480549054A064B70470000891A0008C2
:1002A0002101000878190020781F0020781B002009
:1002B000781B00200FB41CB5074B06AA7B44694687
:1002C0000090059800F0B5FB0020694600F0C4FBE3
:1002D0001CBC5DF814FB0000990700002DE9F041FB
:1002E0000646002410687529314616A510D0AFF3D4
:1002F0000080002802DA404213A507E031688A072F
:1003000001D512A502E0490704D511A5012401E099
:10031000AFF3008000210A2206F1240709E0B0FBB8
:10032000F2FCB0FBF2F302FB1C00303078541846AC
:10033000491C0028F3D123462A463046BDE8F04147
:1003400000F009B9000000002D0000002B000000A3
:10035000200000002DE9F0474FF0000A89460446CE
:10036000C0F820A02046E1688847002876D02528DC
:1003700006D0D4E901219047206A401C2062F1E7B1
:10038000E168204600258847C4F81CA006460027DF
:10039000C4F818A02A2E09D0304601F0D7FB38B394
:1003A00004EB8708303EC8F8186019E059F8041BC0
:1003B000204604EB87029161E1688847012F0646D9
:1003C00018D1E069002820DA25F020051DE0D8F8D2
:1003D000180000EB800006EB40003038C8F8180029
:1003E0002046E1688847064601F0B0FB0028EED1C0
:1003F000012F0AD02E2E08D12046E16888477F1CA5
:100400000646022F45F02005C4DBA069002803DA68
:10041000404245F00105A061E80701D025F0100534
:10042000B6B1A6F14100192802D8203645F400657E
:100430004A463146204625604D46FFF7ABFE58B18F
:10044000012806D0ED1D25F0070000F1080989E715
:1004500004E005F1040985E730468AE7206ABDE833
:10046000F087032A40F2308010F0030C00F0158072
:1004700011F8013BBCF1020F624498BF11F801CBA7
:1004800000F8013B38BF11F8013BA2F1040298BF0C
:1004900000F801CB38BF00F8013B11F0030300F076
:1004A0002580083AC0F0088051F8043B083A51F81A
:1004B00004CBA0E80810F5E7121D5CBF51F8043B1F
:1004C00040F8043BAFF30080D20724BF11F8013B92
:1004D00011F801CB48BF11F8012B24BF00F8013BF4
:1004E00000F801CB48BF00F8012B704710B5203A47
:1004F000C0F00B80B1E81850203AA0E81850B1E8DD
:100500001850A0E81850BFF4F5AF5FEA027C24BF92
:10051000B1E81850A0E8185044BF18C918C0BDE889
:1005200010405FEA827C24BF51F8043B40F8043B52
:1005300008BF7047D20728BF31F8023B48BF11F807
:10054000012B28BF20F8023B48BF00F8012B704761
:100550007047704770472DE9F0470D46994692461F
:10056000044600F124080168880604D5E06921F0FA
:100570001001216000E00120A84201DD471B00E0DE
:100580000027A1697A1902EB0900081AA0612078F6
:10059000C00602D42046AFF30080002608E0D4E96C
:1005A00001211AF806009047206A401C761C206240
:1005B0004E45F4DB2078C0060AD52046AFF3008014
:1005C00006E0D4E9012130209047206A401C2062D7
:1005D000381EA7F10107F4DC07E0D4E9012118F87F
:1005E00005009047206A401C2062281EA5F10105E5
:1005F000F3DC2046AFF300802078000602D502200D
:10060000BDE8F0870120FBE770472DE9FF4F0C465E
:100610001E464FF0FF378BB0D2E90001DDF8608055
:100620000A908A46C1F30A5505B93D46002108469D
:100630004FF00000BAF1000F00F4400005DA00EBC3
:1006400080004FF4400101EA50004FEA9059B9F19F
:10065000010F00DDB9460A9850EA4A000ED044F670
:100660001050A5F2FF3545432F14B8F1000F1ED0EE
:100670007542291E1EDDC9F100021CE0B8F1010F10
:100680004FF0000001D0302103E0F24305E0215497
:10069000401CB042FBDB30460022002121540B9964
:1006A000C1F80880C1E900200FB0BDE8F08FBD1B84
:1006B0006D1CDEE74A4600DA694206A800F05CFAE3
:1006C00006AB93E8070003AB83E8070050460A999E
:1006D00000F03DFB8DE80700A0F500501F380090AA
:1006E0000398002D0ADD42F21F014A460844002308
:1006F00003A90390684600F0A6FD09E0A0F50050AC
:100700004A461F38002303A90390684600F0B0FD55
:100710008DE807000004000C03D04FF0FF304108C3
:1007200000E01046B8F1000F03D0002200921546F9
:100730001EE0751E05D400F099F9303262556D1E29
:10074000F9D5B3460122084302D000227F1C04E001
:100750002078302801D100227F1E002A099784D0FA
:100760001DE0112D07DA00F081F9303262556D1C61
:1007700050EA0102F5D1084302D00098C8B10EE05A
:100780000021681E05E0235C625C63542254401E15
:10079000491C8142F7DBAB46A81B401E0990002094
:1007A00004F80B000B98099AC0F80880C0E9002BE8
:1007B0007AE711264FF0000857E72DE9F04F8846F9
:1007C0000446D21D22F0070191B0D1E90001CDE924
:1007D0000A0101F0A7F902460B98C00F01D02D20A5
:1007E00007E02068810701D52B2002E0202101EAE3
:1007F000C000032A099001D0072A05DB03464146C1
:10080000204600F079F90BE12078800601D5E069F7
:1008100000E00620B8F1650F814606D0B8F1660FFA
:1008200018D0B8F1670F70D131E00020B9F1110F85
:10083000009001DB112301E009F101030AAA01A9DB
:100840000CA8FFF7E2FEDDE90C70002609F10105B6
:10085000834647E001204B4600904FF000470AAA2C
:1008600001A90CA8FFF7D1FEDDE90DB00C995D469A
:10087000002610B909F101000D18B9EB050003D4E9
:10088000C0F1FF3609F10105A5EB09002BE0B9F134
:10089000010F01DA4FF001090020B9F1110F0090AA
:1008A000484601DD112300E003460AAA01A90CA86D
:1008B000FFF7ABFEDDE90C704D460026834620783D
:1008C00000070AD4AB4500DA5D4601A8012D04DD1E
:1008D000411911F8011C302907D04F4502DA17F1F0
:1008E000040F04DA012082460FE06D1EEEE7002FB0
:1008F00002DCED1B3E4403E0781CA84200DD7D1CB9
:10090000B81B00F1010A4FF000472078000703D41C
:10091000AA4501DB4FF0FF3A0021B7F1004F0DF17E
:1009200043088DF8431024D002202B23002F01DA36
:100930007F422D230A21021EA0F1010000DC5FB1DD
:1009400097FBF1FC97FBF1F201FB1C7C17460CF1C5
:10095000300C08F801CDEEE7A8F101000370218802
:10096000090501D5452100E06521A0F1010800F845
:10097000011C09980FA9A1EB0807FF1D00B1012078
:10098000411901EBEA70A1693844081A401EA061C0
:100990002078C00602D42046AFF30080099828B121
:1009A000D4E901219047206A401C20622078C006CB
:1009B00022D52046AFF300801EE0002E04DBB345B5
:1009C00002DD01A8805D00E03020D4E901219047DC
:1009D000206A401C2062761CAAF101005FEA000A2E
:1009E0000AD100F03FF8C0680168405CD4E90121F9
:1009F0009047206A401C2062281EA5F10105DCDC1E
:100A000007E0D4E9012118F8010B9047206A401C47
:100A10002062381EA7F10107F3DC2046AFF3008007
:100A2000032011B041E6000001694A1C0261087808
:100A3000704700B58FB0CDE901310021059105491E
:100A40007944CDE9031011466846FFF783FC0FB0E7
:100A500000BD0000E5FFFFFF0A6802F8010B0A6015
:100A600070470000004870473419002030B5B0F1DD
:100A70000A024FEA900E71F100034EEA817EB0EB5C
:100A80000E0061EB91014FEA101E4EEA017E10EB61
:100A90000E0041EB11114FEA102E4EEA016E10EBE1
:100AA0000E0041EB11214FEA104E4EEA014E10EBC1
:100AB0000E0041EB1141401841F100014FEAD00016
:100AC00040EA41704FEAD10110EB80054FEA810402
:100AD00044EA907444EB01046D1944EB0404521B86
:100AE000A3414FF0000348BF0A3200D530BD401C7F
:100AF00041F1000130BD00002DE9F0411F460446E0
:100B000003260168072A01F4006004DB08B116A57A
:100B100005E016A503E008B115A500E015A521F034
:100B200010002060A069C01EA0610FB1401EA0612E
:100B30002046AFF300804FB1D4E9012138469047F9
:100B4000206A401C2062C01C206206E0206AFAE78E
:100B5000D4E9012115F8010B9047761EF8D2204602
:100B6000AFF30080BDE8F0814E414E006E616E0033
:100B7000494E4600696E66002DE9F04781461646EB
:100B80008AB0354878440DC88DE80D003248784465
:100B9000801C03AC0DC884E80D0041F69B3008446E
:100BA000372190FBF1F290FBF1F5A5F1800501FBF7
:100BB00012041B3C02D56442012000E00020DFF853
:100BC00098A080460027FA44AAF1BE0A0EE0E0078A
:100BD0000AD03246684607EB470101230AEB810140
:100BE00000F046FB8DE8070064107F1C002CEED15E
:100BF000194F7F44AE3F19E0E80715D007EB04100A
:100C00000DF1180A90E80E008AE80E00C068F04264
:100C100001D1981908903246012306A903A800F0D3
:100C200027FB03AB83E807006D10641C002DE3D1A4
:100C30004FF0010332466946B8F1000F03A802D015
:100C400000F001FB01E000F013FBC9E90001C9F865
:100C500008200AB0BDE8F087D8220000004870479D
:100C6000141900207546FFF7F9FFAE4605006946E6
:100C7000534620F00700854618B020B5FFF708FB63
:100C8000BDE820404FF000064FF000074FF000088D
:100C90004FF0000B21F00701AC46ACE8C009ACE80E
:100CA000C009ACE8C009ACE8C0098D46704710B572
:100CB0000446AFF300802046BDE81040FFF787BA36
:100CC0004FF0013C50F8042B51F8043B9A4221D1DB
:100CD000A2EB0C03934313EACC1317D150F8042B67
:100CE00051F8043B9A4215D1A2EB0C03934313EA4B
:100CF000CC130BD150F8042B51F8043B9A4209D184
:100D0000A2EB0C03934313EACC13DBD04FF00000AB
:100D1000704700BFD01A01BAB1FA81F101F0180191
:100D200022FA01F0CB40C1F12001DBB2C0B2C01AFF
:100D30002CFA01F3D11A914311EAC311E6D170479D
:100D400001491820ABBEFEE72600020070475FEAAB
:100D5000400C08BF91F0000F4FEA8C234FEAC122EC
:100D600043EA51514FEA1C5018BF00F5F0404FEADA
:100D7000300018BF41F000415FEA6C5C00F0298050
:100D8000BCF1FF3F08BF40F080407047130C06BF26
:100D900012044FF0100C4FF0000C130E04BF12029F
:100DA0000CF1080C130F04BF12010CF1040C930F8B
:100DB00004BF92000CF1020CD30F04BF52000CF1DF
:100DC000010C11464FF00002A0F11F00A0EB0C0037
:100DD000704711F0004F08BF704731F000413FF4F9
:100DE000D5AF0B0C06BF09044FF0100C4FF0000CF0
:100DF0000B0E04BF09020CF1080C0B0F04BF090114
:100E00000CF1040C8B0F04BF89000CF1020CCB0F0A
:100E100004BF49000CF1010CCCF12003A0EB0C0045
:100E200022FA03F302FA0CF241EA030100F1010095
:100E3000704720F07F4C80EA030023F07F47ACEB43
:100E4000070303F57C5300F0004003F1FF032DE995
:100E500080494FEA154B09B44FEA144325EA0B4E7B
:100E600024EA03480FF2042606EB132749083E78CC
:100E70005FEA320203FB0667C7F5000707FB06F6C9
:100E80004FEA54374FEAD64606F1020607FB066CD6
:100E9000CCF1005C4FEA1C472CEA074C07FB06F438
:100EA0000CFB06F504EB15464FEA961634BF0020FE
:100EB0004FF000404FEAD13706FB07FC4FEA1C4CCD
:100EC0000CFB0BF7D21B03FB0CF761EB07010CFBD0
:100ED0000EF7B0EB074072EB17420CFB08F734BF7C
:100EE000A2EB0742B2EB074261EB17414FEA0C4419
:100EF0004FEA910706FB07FC4FEA1C4C0CFB0BF773
:100F0000B0EBC74072EB573203FB0CF734BFA2EBD8
:100F1000C742B2EBC74261EB57310CFB0EF7B0EBA7
:100F2000C70072EB57720CFB08F734BFA2EBC70285
:100F3000B2EBC70261EB5771039F4FEA816141EA4F
:100F4000921104EBCC044FEAD1374FEA826206FBE0
:100F500007FC42EA90124FEA80604FEA1C4C0CFBFF
:100F60000BF7D21B03FB0CF761EB07010CFB0EF731
:100F7000B0EB074072EB17420CFB08F734BFA2EB53
:100F80000742B2EB074261EB17414FEA8C554FEA3B
:100F9000910704EB9C2406FB07FC4FEA1C4C0CFB5E
:100FA0000BF7B0EBC74072EB573203FB0CF734BFC3
:100FB000A2EBC742B2EBC74261EB57310CFB0EF715
:100FC000B0EBC70072EB57720CFB08F734BFA2EB13
:100FD000C702B2EBC70261EB577115EB4C254FEA24
:100FE000816141EA92114FEA82624FEAD13742EAC7
:100FF000901206FB07FC44F100044FEA80604FEAC0
:101000001C4C0CFB0BF7D21B03FB0CF761EB07012D
:101010000CFB0EF7B0EB074072EB17420CFB08F726
:1010200034BFA2EB0742B2EB074261EB174115EB6D
:101030001C154FEA813141EA92414FEA823242EA7D
:1010400090424FEA80304FEA0C7644F1000448EABF
:1010500003434EEA0B484FF0000EB2EB080C71EB65
:10106000030724BF624639464EEB0E0E4FF0000BCD
:101070000018524149414BEB0B0BB2EB080C71EBE2
:1010800003077BF1000B24BF624639464EEB0E0E80
:101090004FF0000B0018524149414BEB0B0BB2EBE8
:1010A000080C71EB03077BF1000B24BF6246394645
:1010B0004EEB0E0E51EA020718BF46F0010616EB82
:1010C0000E7655F1000254F1000103D5BDE8890107
:1010D000BDE80088BDE88901BDE80048B619524165
:1010E00041EB0101A3F10103704780807F7E7D7C8D
:1010F0007B7A7978777676757473727171706F6EAA
:101100006E6D6C6C6B6A6A69686867666665646454
:10111000636362616160605F5F5E5E5D5D5C5C5BDE
:101120005B5A5A595958585757565655555554544D
:10113000535352525251515050504F4F4F4E4E4DAB
:101140004D4D4C4C4C4B4B4B4A4A4A4949494848F7
:101150004847474747464646454545444444444337
:1011600043434342424242414141002B9C4630D4DA
:1011700077002BD01CB54FEA370703B44FF01000AF
:101180004FF01001BAF1000F06D0BCF1000FDCBF28
:1011900040F0080040F008014FF000000FBCBDE82F
:1011A00010400BF1010BBBF1010F08BF5FEA1707FD
:1011B00022BF12F1010211F101014FF0004143F190
:1011C000000300F0004043EA00007047F9D35708DD
:1011D000D0E746EA064613F1400F4FEA16461FDDF8
:1011E00013F1200FDFBF16430A46002120335B4274
:1011F000BED0C3F1200746EA064602FA07F74FEAD7
:10120000164646EA0706C3F1200722FA03F201FA5E
:1012100007F721FA03F14FF0000342EA0702A7E7BC
:1012200046EA020646EA06464FEA164646EA01063E
:10123000BCBF46EA0646360C4FF000034FF00002F2
:101240004FF0000194E72DE9804C9A46934670B424
:1012500091E8380007C831EA400C48BF34EA430C33
:1012600003D5FFF7E6FDFFF780FFF0BCBDE8008C7B
:101270002DE9804C9A46934670B491E8380007C82F
:1012800010F0804F08BF13F0804F03D100F005F835
:10129000FFF76BFFF0BCBDE8008C20F07F4780EAD1
:1012A000030023F07F4C07EB0C03A3F57C5300F005
:1012B0000040A3F1FE0392F0000F00F0B38095F020
:1012C000000F00F077802DE901494FEA11404FEA05
:1012D000144621EA004800FB06FC24EA064708FB06
:1012E00006F607FB08F800FB07F718EB06484CEB7F
:1012F000164C4FEA124B18EB07484FEA15464CEBD9
:10130000174022EA0B4E0BFB06FC25EA06470EFBB4
:1013100006F607FB0EFE0BFB07F71EEB064E4CEB2B
:10132000164C4FF000061EEB074E4CEB174B18EB1C
:101330000B0840F1000018EB0E0B58EB000840F1D1
:1013400000008F1A4FF000013CBFC943661B14BF59
:10135000B5EB040C00213CBFC943F61B4FEA174410
:101360004EEA8E0E27EA04454FEA1C4704FB07624B
:101370002CEA074C05FB07F70CFB05F604FB0CFCFD
:1013800016EB074642EB174216EB0C4642EB1C42AB
:101390001BEB060658EB0202414146EA9E0601D5C8
:1013A000BDE80189B619524141EB0101A3F10103E6
:1013B000BDE801894FEA14454FEA114724EA054682
:1013C00021EA074C05FB07F406FB07F70CFB06F1C7
:1013D00005FB0CFC11EB074144EB17444FEA1247A5
:1013E00011EB0C4144EB1C4422EA074C05FB07F2CD
:1013F00006FB07F70CFB06F605FB0CFC16EB074695
:1014000042EB174216EB0C4642EB1C456A1854F1AE
:10141000000148BF7047B619524141EB0101A3F1E9
:101420000103704795F0000F37D04FEA11424FEAA1
:10143000144721EA024624EA074C02FB07F106FBA7
:1014400007F70CFB06F402FB0CFC14EB074441EB22
:1014500017414FEA154714EB0C4441EB1C4125EAB8
:10146000074C02FB07F506FB07F70CFB06F602FB31
:101470000CFC16EB074645EB174516EB0C4645EB07
:101480001C42121951F1000148BF7047B619524170
:1014900041EB0101A3F1010370474FEA14454FEA04
:1014A000114724EA054621EA074C05FB07F106FB34
:1014B00007F70CFB06F24FF0000605FB0CFC12EBE5
:1014C000074241EB174112EB0C4251EB1C4148BF64
:1014D0007047921841EB0101A3F10103704700002E
:1014E0000E48806940F004000C4988610C4800688F
:1014F00020F004000A4908600846006840F008002F
:1015000008600846006840F003000860034840682F
:1015100040F08060014948607047000000100240C0
:10152000040801402748806940F00400254988618B
:101530000846806940F0010088612348006820F077
:101540000C00214908600846006820F0030008608C
:101550001C48806940F400701A4988610846806917
:1015600088611A48006840F004001849086000BF0C
:101570001648006800F004000028F9D013480068FD
:1015800040F00100114908600846006820F00200A0
:1015900008600846006840F460200860084600685B
:1015A00040F480100860081D006840F4E010091D38
:1015B000086006482C30006820F01F0003492C31D9
:1015C00008607047001002400008014008240140F4
:1015D0000E48C06940F000500C49C8610846806957
:1015E00040F0040088610A48006820F4402008495F
:1015F00008600846006820F440300860054800682C
:1016000040F00100034908607047000000100240EC
:1016100000080140007400401548806940F0100047
:10162000134988610846806940F0040088611148C8
:10163000406820F00C000F4948600846406840F0C0
:10164000010048600846406820F0C0004860084635
:10165000406840F0100048600846006820F00C0028
:1016600008600846006820F003000860704700002A
:1016700000100240001001402348C06940F0010002
:101680002149C8610846806940F004008861084625
:10169000806940F0010088611C48006820F0C000AB
:1016A0001A4908600846006840F080000860084653
:1016B000006820F0300008600846006840F0300004
:1016C00008601720C90408854FF47A7088850020C7
:1016D00008870846008B40F4C04008830846008C09
:1016E00040F0100008840846008C20F02000088498
:1016F0000846008820F0100008800846008840F066
:1017000001000880704700000010024000080140FE
:101710002B48006840F480302949086000BF284801
:10172000006800F400300028F9D013202549086033
:101730002348406822494860084640684860084697
:10174000406848600846406820F4701048600846C9
:10175000406820F4803048600846406820F400303B
:1017600048600846406840F4803048600846406859
:1017700040F4003048600846406840F480104860FB
:101780000846006840F08070086000BF0C480068A0
:1017900000F000700028F9D00948406820F00300EC
:1017A000074948600846406840F00200486000BFB2
:1017B0000348406800F00C000828F9D17047000089
:1017C000001002400020024010B500F003F800F0C5
:1017D0004BF810BD10B52148806940F480401F4986
:1017E00088610846806940F0040088610846806985
:1017F00040F0010088611A48006840F080001849F4
:1018000008600846006840F030000860084600683C
:1018100040F4806008600846006820F4407008606A
:1018200040F6C4100F490880081D008840F00800E9
:10183000091D08800846008840F00400088008461A
:10184000008840F4005008800846008840F02000DE
:101850000880252000F052F810BD00000010024062
:10186000040801400838014010B52148C06940F41F
:1018700000301F49C8610846806940F00400886153
:101880000846806940F0010088611A48006840F409
:101890000060184908600846006840F4407008601D
:1018A0000846006840F4804008600846006820F45C
:1018B0004050086040F6C4100F490880081D008899
:1018C00040F00800091D08800846008840F0040028
:1018D00008800846008840F40050088008460088C8
:1018E00040F020000880262000F008F810BD00001D
:1018F00000100240000801400844004000F01F02B0
:10190000012191404209920002F1E022C2F8001147
:101910007047000000BF0549098801F04001002917
:10192000F9D00249091D08807047000000380140C5
:1019300010B50246002305E019465C1CE3B2505C7A
:1019400000F004F8D05C0028F6D110BD00BF0549B6
:10195000098801F040010029F9D00249091D0880D9
:10196000704700000038014010B500F001F810BDCC
:101970000CB50020019000902A48006840F48030A7
:101980002849086000BF2748006800F40030009034
:101990000198401C0190009818B90198B0F5A06F0B
:1019A000F1D12048006800F4003010B1012000900F
:1019B00001E0002000900098012831D119484068CA
:1019C00018494860084640684860084640684860D2
:1019D0000846406820F47C1048600846406840F49F
:1019E000981048600846006840F08070086000BFAA
:1019F0000C48006800F000700028F9D009484068E1
:101A000020F00300074948600846406840F00200A3
:101A1000486000BF0348406800F00C000828F9D176
:101A20000CBD0000001002400948006840F480002E
:101A30000749086000BF06480838006800F0020047
:101A40000028F8D002484430006880B27047000097
:101A50000824014010B500BFBF2080F31188BFF3F8
:101A60004F8FBFF36F8F00BF00F032FF18B14FF000
:101A700080500449086000BF002080F3118800BF37
:101A800010BD000004ED00E010B51448006840F0FF
:101A900001001249086008464068114908400F4992
:101AA0004860084600680F4908400C49086008462D
:101AB000006820F4802008600846406820F4FE009A
:101AC00048604FF41F0088600020C862FFF74CFF99
:101AD0004FF000600449086010BD00000010024093
:101AE0000000FFF8FFFFF6FE08ED00E00548008863
:101AF00000F0200028B10348008820F020000149B0
:101B000008807047003801400548008800F0200038
:101B100028B10348008820F0200001490880704760
:101B200000440040490050EAC12018BF04204A0D7B
:101B300018BF40F0010040F2FF72B2EB515F08BFE6
:101B400040F00200012808BF0520704730380A28FD
:101B500001D2012070470020704700001CB5FFF73C
:101B6000D7FDFFF7BDFCFFF757FDFFF72DFEFFF791
:101B700083FDFFF7D7FCFFF72BFD00200121034673
:101B80008022CDE9001011A1114800F071FE002063
:101B9000012103468022CDE900100EA10E4800F07D
:101BA00067FE0020012103462022CDE900100BA191
:101BB0000B4800F05DFE00220221052000F0A4FC8D
:101BC0000849086000F008FC00BFFEE7484D4900E6
:101BD0009122000841444300ED21000844414300A4
:101BE00021220008000000202DE9F04105460E46A4
:101BF0001648076816480068001D00F077FA681C50
:101C000038B936B112480168091D124800F0B5FA1A
:101C10001AE07C190E4800684460BC4207D20C48A8
:101C20000168091D0C48006800F08DFA0CE00848B6
:101C30000168091D0948006800F085FA0848006835
:101C4000844201D206480460BDE8F08124000020EF
:101C500010000020001900201800002014000020AF
:101C60004000002010B5044600F094FA22480068B5
:101C7000401C214908602148006840B91F480460A1
:101C80000846006801280DD100F032F90AE01C482E
:101C9000006838B919480068C06AE16A884201D80A
:101CA0001648046017480068401C16490860164929
:101CB000E06A0968884202D91349E06A0860E16A6B
:101CC00001EB8101114A02EB8100211D00F055FA60
:101CD00000F072FA0A48006868B108480068C06AF3
:101CE000E16A884207D24FF0805009490860BFF38B
:101CF0004F8FBFF36F8F10BD200000201000002019
:101D00002C0000203C000020280000204C1800205F
:101D100004ED00E070B523E000F090FB134800688C
:101D200008B9012000E00020054600F09DFEBDB985
:101D300000F030FA0D48C068C468201D00F0D6F9E4
:101D40000B480068401E0A4908600A480068401EA7
:101D50000849086000F030FA204600F057F800BF4C
:101D6000044800680028D7D170BD0000EC1800209E
:101D7000200000201C00002070B504460D46206C99
:101D800070B1216CE0680844E0606168E0688842F6
:101D900001D32068E0602846226CE168FEF761FB11
:101DA00070BD2DE9F04104460F4615464FF000087E
:101DB000A66B206C28B37DB93946226CA068FEF76B
:101DC00050FB216CA0680844A060D4E9011088424F
:101DD00017D32068A06014E03946226CE068FEF753
:101DE00040FB216CE068401AE0602168E0688842AE
:101DF00003D2216C6068401AE060022D01D106B167
:101E0000761E701CA0634046BDE8F08110B5044604
:101E1000206B00F0E1F9204600F0DEF910BD000073
:101E200000BFFFF777FF064800680128F9D94FF097
:101E3000805004490860BFF34F8FBFF36F8FF0E706
:101E40004C18002004ED00E02DE9F04106460D4657
:101E500017469846069C0DB9246000E02760E663AB
:101E600025640121204600F009FCBDE8F0812DE940
:101E7000FF5F80460E469146DDE90E7A109CA9F17F
:101E80000100216B01EB800B2BF0070B002507E015
:101E9000715D04F134004155705D00B902E06D1CC4
:101EA000102DF5D300BF002143200155052F00D38D
:101EB0000427E762201D00F043F904F1180000F048
:101EC0003FF92461C7F10500A061646200206064ED
:101ED00084F8480041465846039A00F0F5F820601F
:101EE000BAF1000F01D0CAF80040BDE8FF9F000022
:101EF00010B5002407E004EB84010F4A02EB8100D7
:101F000000F011F9641C052CF5D30C4800F00BF916
:101F10000B4800F008F90B4800F005F90A4800F0FA
:101F200002F90A4800F0FFF804480949086004482B
:101F30000849086010BD00004C180020B0180020AF
:101F4000C4180020D8180020EC1800200019002028
:101F5000140000201800002070B5054600F01AF9A2
:101F6000A86B08B9012400E0002400F025F9204600
:101F700070BD70B5054600F00DF9A86BE96B88429D
:101F800001D1012400E0002400F016F9204670BDC4
:101F90000A490968096809B9012100E0002121B155
:101FA0004FF0FF31064A116006E004490968C9682C
:101FB000C868034A4168116070470000140000209F
:101FC0004000002000BFBF2080F31188BFF34F8F77
:101FD000BFF36F8F00BF00BFFEE770B5044600F08F
:101FE000D9F894F9455010E0606A08B9012000E082
:101FF000002038B904F1240000F0F6FC18B100F01C
:1020000041F900E003E0681E45B2002DECDC00BFA2
:10201000FF2084F8450000F0CFF800F0BBF894F9F9
:10202000445010E0206908B9012000E0002048B9C0
:1020300004F1100000F0D8FC08B100F023F9681E8C
:1020400045B200E001E0002DECDC00BFFF2084F889
:10205000440000F0B1F870BD70B50446002504F0EE
:10206000070020B104F00700C0F10800044400F0AC
:10207000E5F91248006820B9114820F007000F491F
:10208000086010480068204441F2F871884210D27C
:102090000C48006820440B490968884209D9074860
:1020A0000068084909684518064800682044054941
:1020B000086000F0D9FC284670BD00000800002030
:1020C0005400002004000020001F4FF080730360C4
:1020D000001F21F001030360001F034B036014384D
:1020E0000260203870470000C51F000801460A69D9
:1020F000D1E901309860D1E9010358605068884205
:1021000001D188685060002008611068401E10608E
:102110001068704770B5044600F03CF8A56B00F0FD
:102120004BF8284670BD00F1080141604FF0FF31C7
:10213000816000F10801C160016100210160704708
:1021400000210161704710B502460B685C1C0CB998
:10215000106907E002F1080000E040684468246864
:102160009C42FAD944684C604C68A1608860416028
:102170000A611468641C146010BD42684A60936868
:102180008B60936859609160086103685B1C036011
:102190007047000000BFBF2080F31188BFF34F8F4E
:1021A000BFF36F8F00BF03480068401C01490860FF
:1021B000704700000C00002006480068401E0549DA
:1021C00008600846006820B9002080F3118800BF2D
:1021D00000BF70470C000020704745F6BF504FF01D
:1021E000E0214861072008617047000008B512E04F
:1021F000FFF71AFC009000231A466946064800685B
:1022000000F07CFA0548C06880F480700349C8601B
:10221000C82000F01DF8EBE700000020001001408E
:1022200090B0402209496846FEF760F90CE021466B
:10223000621C94B23DF8110000F044F9202C00D14A
:102240000024012000F004F8F1E70000A42D0008AC
:1022500070B50446002544B100F0F0F80021204696
:10226000FFF7C2FC00F000FC05463DB94FF080507E
:1022700003490860BFF34F8FBFF36F8F70BD00003D
:1022800004ED00E00120014908607047340000209F
:1022900086B0344D65E034480068FFF73BFF002806
:1022A0005CD000231A4605A92F48006800F048F9C1
:1022B000BDF814202DA104A8FDF7FCFF2CA0FFF70A
:1022C00037FB04A8FFF734FB2CA0FFF731FBFF20FE
:1022D000FFF720FBFF20FFF71DFBFF20FFF71AFB96
:1022E000BDF8140000F07CFC0646294600F08CFC8A
:1022F0000446204600F048FC064632460B4620A124
:1023000002A8FDF7D7FF20A0FFF712FB02A8FFF7F6
:102310000FFB20A0FFF70CFBFF20FFF7FBFAFF20CD
:10232000FFF7F8FAFF20FFF7F5FABDF814002921AE
:1023300090FBF1F632460DA101A8FDF7BBFF16A0F8
:10234000FFF7F6FA01A8FFF7F3FAFF20FFF7E2FA2A
:10235000FF20FFF7DFFAFF20FFF7DCFA6420FFF72A
:1023600077FF98E7B0E33F3A0000002025750000B2
:1023700074302E7478743D220000000022000000AA
:10238000252E33660000000074312E7478743D22CF
:1023900000000000205622006A302E76616C3D005D
:1023A00070B505460C460548016818312846FFF708
:1023B000CAFE01212046FFF717FC70BD1000002067
:1023C00003490968016003490968416070470000DA
:1023D00038000020240000201CB5114800210B46C5
:1023E0002022CDE900100FA1104800F041FA044668
:1023F000012C14D100BFBF2080F31188BFF34F8F91
:10240000BFF36F8F00BF4FF0FF3009490860012014
:102410000849086000200849086000F05BF81CBD0E
:102420004400002049444C4500000000211E0008E3
:10243000400000202C0000202400002002480068FA
:10244000401C014908607047480000201848006897
:1024500018B101201749086028E0002015490860DC
:102460001548016800E0491E01EB8100134A52F84B
:10247000200008B9012000E000200028F3D101EB82
:1024800081020E4B03EB820042685268426000F109
:1024900008024368934202D142685268426042682F
:1024A000D268074B1A600448016000BF7047000003
:1024B0004800002034000020280000204C18002094
:1024C00010000020B0F5805F01DA01490860704714
:1024D0000874004010B50A48006840F47F000849BD
:1024E00008600846006840F07F400860FFF775FE0E
:1024F000002004490860FDF783FE002010BD0000A5
:1025000020ED00E00C0000202DE9F84307460D46C1
:1025100090460DB9002601E007FB05F606F14800DC
:10252000FFF79AFD044644B104F1480943464A4680
:10253000294638460094FFF787FC2046BDE8F8831B
:102540002DE9FF4782B0054689461E464FF0000A36
:102550002C4600BFFFF71EFED4F83880B8F1000FFC
:1025600036D0E76849462046FFF706FCB6B9A8F121
:102570000100A063206908B9012000E0002008BB29
:1025800004F1100000F030FAE0B14FF080503A4909
:102590000860BFF34F8FBFF36F8F13E0E760606A8F
:1025A00008B9012000E0002060B904F1240000F027
:1025B0001BFA38B14FF080502F490860BFF34F8F9E
:1025C000BFF36F8FFFF7F8FD012006B0BDE8F0877D
:1025D000049818B9FFF7F0FD0020F6E7BAF1000FF4
:1025E00004D16846FFF7ECFE4FF0010AFFF7E4FD67
:1025F000FFF724FFFFF7CEFD94F94400401C10B90B
:10260000002084F8440094F94500401C10B90020D3
:1026100084F84500FFF7D0FD04A9684600F0FAF8F9
:10262000F0B92046FFF798FCA0B104F1240004990A
:10263000FFF7B6FE2046FFF7D0FC00F015FA0028A1
:1026400088D14FF080500C490860BFF34F8FBFF323
:102650006F8F7FE72046FFF7C0FC00F005FA79E7AF
:102660002046FFF7BAFC00F0FFF92046FFF774FCA4
:102670000028EED00020A8E704ED00E070B5054684
:102680000E462C46FFF786FDD4E90F12206801FBA9
:10269000020060600020A0632068A060E06B401E24
:1026A000226C216800FB0210E060FF2084F84400E7
:1026B00084F845009EB9206908B9012000E0002097
:1026C000A8B904F1100000F08FF980B14FF08050EC
:1026D00009490860BFF34F8FBFF36F8F07E004F124
:1026E0001000FFF720FD04F12400FFF71CFDFFF7A9
:1026F00063FD012070BD000004ED00E02DE9FF4303
:1027000083B0074688461D464FF000093C4600BF8F
:10271000FFF740FDA06BE16B884201D3022D28D169
:102720002A4641462046FFF73CFB0646606A08B948
:10273000012000E0002068B904F1240000F054F901
:1027400088B14FF0805032490860BFF34F8FBFF31C
:102750006F8F08E03EB14FF080502D490860BFF305
:102760004F8FBFF36F8FFFF727FD012007B0BDE844
:10277000F083059818B9FFF71FFD0020F6E7B9F1BF
:10278000000F04D101A8FFF71BFE4FF00109FFF76E
:1027900013FDFFF753FEFFF7FDFC94F94400401CC6
:1027A00010B9002084F8440094F94500401C10B989
:1027B000002084F84500FFF7FFFC05A901A800F000
:1027C00029F8F0B92046FFF7D4FBA0B104F11000BE
:1027D0000599FFF7E5FD2046FFF7FFFB00F044F900
:1027E000002895D14FF0805009490860BFF34F8F02
:1027F000BFF36F8F8CE72046FFF7EFFB00F034F953
:1028000086E72046FFF7E9FB00F02EF90020ADE750
:1028100004ED00E070B504460D46FFF7BBFC12481E
:1028200002682868401C08B9002619E00F49206892
:102830000968884204D06068904201D801260FE000
:102840006068101A2968884209D228686168511A9C
:10285000401A28602046FFF7B3FD002600E001265D
:10286000FFF7AAFC304670BD24000020380000208D
:102870002DE9FF4F85B0804689461746DDE912AB4A
:10288000B800FFF7E9FB064656B14C20FFF7E4FB22
:1028900004460CB1266304E03046FFF79DFC00E0DF
:1028A00000247CB10020CDE900ABCDE902403A46DE
:1028B00049464046089BFFF7DAFA2046FFF7D2F96F
:1028C000012501E04FF0FF35284609B0BDE8F08F43
:1028D0002DE9F041002739480068002862D13848C6
:1028E0000068451C364805608DB93648D0F8008030
:1028F00035480068334908603348C0F800803348E1
:102900000068401C31490860FFF742FB00BF3048B7
:10291000006885423AD300BF2A480068006808B9B9
:10292000012000E0002020B14FF0FF30284908606E
:102930002BE024480068C068C4686668B54202D2CB
:102940002348066021E0201DFFF7D0FBA06A18B1E4
:1029500004F11800FFF7CAFB1E49E06A09688842C3
:1029600002D91C49E06A0860E16A01EB81011A4A58
:1029700002EB8100211DFFF700FC1849E06A09689D
:10298000C96A8842C8D30127C6E700BF1348006858
:10299000C06A00EB8000104951F82000012800D9DE
:1029A000012704E00E480068401C0D4908600D48EE
:1029B000006800B101273846BDE8F08148000020DA
:1029C00024000020140000201800002038000020FF
:1029D00040000020280000204C180020100000209B
:1029E000300000203400002070B50646F068C4684E
:1029F00004F11800FFF77AFB15480068A0B9201D04
:102A0000FFF774FB1349E06A0968884202D911494B
:102A1000E06A0860E16A01EB81010F4A02EB810084
:102A2000211DFFF7AAFB04E004F118010B48FFF792
:102A3000A4FB0B49E06A0968C96A884204D90125E8
:102A400001200849086000E00025284670BD00000C
:102A500048000020280000204C180020D818002032
:102A6000100000203400002070B500240026FFF77D
:102A700091FB2E480068401E2C49086008460068FB
:102A800000284ED12A48006800284AD023E029486F
:102A9000C068C46804F11800FFF728FB201DFFF789
:102AA00025FB2549E06A0968884202D92249E06A83
:102AB0000860E16A01EB8101204A02EB8100211DDF
:102AC000FFF75BFB1E49E06A0968C96A884202D3C6
:102AD00001201C4908601748006808B9012000E07F
:102AE00000200028D3D00CB1FFF752FA1648056831
:102AF00065B100BFFFF7ECFE10B10120114908607D
:102B00006D1E002DF6D100200F4908600D480068A9
:102B100038B1012630070D490860BFF34F8FBFF36E
:102B20006F8FFFF749FB304670BD00004800002062
:102B300020000020D8180020280000204C18002079
:102B400010000020340000203000002004ED00E0E0
:102B500010B500290AD00878002807D00548784425
:102B6000FEF7AEF8002801D0002010BD02487844DE
:102B700010BD00003A030000320300000808A0F571
:102B800000114FEA3101704743004FEAD30C4FEA7E
:102B90003C0C43401FBF40070CF1605113F0FE4F47
:102BA00070471CF0006F03D100200CF0004170470B
:102BB0000CF0004343EA507010B540EACC0000F03E
:102BC000A4F800BF000000924FEA0001FFF7D6BF53
:102BD0004FF000414FF00000A1F5002170470000C8
:102BE000B0FA80F310FA03F2C3F19D030AD0D905BD
:102BF00001EB1220530638BF704700F1010008BFF7
:102C000020F00100704700004FF47F0C1CEAD01246
:102C10001EBF1CEAD11392EA0C0F93EA0C0F00F0CE
:102C2000478090EA010F48BF42F480724FF0004C99
:102C30004CEA00204CEA012102EB0302A0FB011345
:102C4000A2F50002002918BF43F001035B0028BF72
:102C50004FEA330342EB22425FEA132C4CEBC250A3
:102C60002EBFBCEB436FB2F57C0F70474FEA036C8D
:102C7000BCF1004F08BF20F00100B2F57C0F38BF57
:102C800070470BD582F0FF0212F5803FC8BF704736
:102C900000F1C040D8BF00F00040704700F5000CC4
:102CA0005FEA4C0C48BF7047B0F1C04000F073B809
:102CB00090EA010F0CEAD11348BF42F480726245DA
:102CC00038BF634504D280EA010000F0004070473D
:102CD00010B500F01AF800BF8900013E00F007B8F7
:102CE00000F009B85FEA410C5FEA1C6C08D080EA8A
:102CF000010000F050B85FEA400C5FEA1C6CF6D1AE
:102D00004FF00040A0F5800070470EF1020E2EF04B
:102D1000030E5EF8044B244204D44FEA4102B2F1A0
:102D20007F4F11D84FEA4003B3F17F4F0CD80ED13B
:102D30004FEAD07CB2F17F4F0CEB4C0C0CF1020C43
:102D400008BF4CEBD17C04E04FF0080C01E04FEAE7
:102D5000D17C0CEB4C0324FA03F404F00704B4F127
:102D6000040C06D20EEB840CBDE810404CF0010CB4
:102D70006047DFE80CF0070802024FF00040A0F5C2
:102D8000800010BD0846420018BFD2F1807288BF93
:102D900000F0004010BDFF2141EAD050C00570474F
:102DA000FDF70BBD000026009B00580157028D0364
:102DB000EF046F06FF078F090F0B710CAA0DA60E0B
:102DC000630FD80FFF0FD80F630FA60EA70D710C5E
:102DD0000F0B8F09FF076F06EF048D035702580191
:102DE0009B00260002400000000000A00000000040
:102DF00005400000000000C8000000000C4000007A
:102E00000000409C00000000194000000020BCBEF3
:102E10000000000034400000BFC91B8E0000000409
:102E2000B5400000504BCFD06607E2CF0100000054
:102E30006C4100003E8251AADFEEA7340100000081
:102E4000D9420000DCB5A0E23A301F97FFFFFFFF38
:102E5000B4450000FD25A0C8E9A3C14FFFFFFFFF57
:102E6000FF3F00000000008000000000FF3F000066
:102E70000000008000000000B42E000800000020C8
:102E80004C0000005C010008002F00084C000020EE
:102E90002C1F0000780100081C0000004300000007
:102EA000F8FFFFFF0C0000000E0000000F00000004
:102EB0002E000000000000000000000000000000E4
:102EC000AAAAAAAA0000000000000000000000005A
:102ED00000000000000000000000000000000000F2
:102EE00000000000000000000000000000000000E2
:102EF00000000000000000000000000000000000D2
:040000050800027578
:00000001FF
